S010000047726F76654C43442E737265633E
S11300000C9475000C948A000C948A000C948A0059
S11300100C948A000C948A000C948A000C948A0034
S11300200C948A000C948A000C948A000C948A0024
S11300300C948A000C948A000C948A000C948A0014
S11300400C948A000C948A000C948A000C948A0004
S11300500C948A000C948A000C948A000C948A00F4
S11300600C948A000C948A0007634236B79BD8A785
S11300701A39685618AEBAAB558C1D3CB7CC5763C9
S1130080BD6DEDFD753EF6177231BF000000803F77
S113009008000000BE922449123EABAAAA2ABECD93
S11300A0CCCC4C3E00000080BEABAAAAAA3E000005
S11300B00000BF000000803F0000000000084178FD
S11300C0D3BB4387D1133D190E3CC3BD4282AD2B34
S11300D03E68EC8276BED98FE1A93E4C80EFFFBE2C
S11300E001C4FF7F3F000000000011241FBECFEFBA
S11300F0D8E0DEBFCDBF11E0A0E0B1E0EEEBFDE063
S113010002C005900D92AE30B107D9F70E9451019B
S11301100C94DD060C9400006150710920E030E07D
S11301200EC0DC01A20FB31F4C91FC01E60FF71FB8
S113013050815C9340832F5F3F4F615071092617B4
S113014037077CF308950F931F93CF93DF938B01AD
S11301509A01C0E0D0E00CC0F801EC0FFD1F6AE08A
S113016070E00E94B506805D8083862F972F2196CC
S1130170009791F706C0F801EC0FFD1F80E3808320
S11301802196C217D307BCF3BE01C8010E948C009C
S1130190F801EC0FFD1F1082CE01DF91CF911F916A
S11301A00F9108954F925F926F927F928F929F92D8
S11301B0AF92BF92EF92FF920F931F93CF93DF936F
S11301C02B013C017A0189010E948D034B015C01E2
S11301D0072E000C880B990B0E94C5039B01AC01F0
S11301E0C301B2010E9420032B013C0140E050E016
S11301F0B701C4010E94A300EC010115110529F106
S1130200F701E80FF91F8EE28083B801012E000C7C
S1130210880B990B0E94C5039B01AC0160E070E060
S113022080E291E40E94BE049B01AC01C301B201CF
S11302300E9451042196CE0DDF1D0E948D03DC0126
S1130240CB01A801BE010E94A300DF91CF911F91B1
S11302500F91FF90EF90BF90AF909F908F907F9001
S11302606F905F904F90089587E880937A0080E4C0
S113027080937C000895ECE7F0E09081907F908378
S11302809081892B8083EAE7F0E080818064808319
S113029080917A0086FDFCCF80917800909179005E
S11302A00895CF93DF93CDB7DEB764970FB6F89474
S11302B0DEBF0FBECDBF2FEF36E741E02150304007
S11302C04040E1F700C000000E946A028FE39FE112
S11302D00197F1F700C000008CE70E949F029AE6A4
S11302E09A95F1F700C080E80E94CC022AE62A958C
S11302F0F1F700C088E20E94CC020E94C4028FE39E
S11303009FE10197F1F700C000004CE060E88EE344
S11303100E94DE0241E060E88EE30E94DE0246E0D5
S113032060E88EE30E94DE028FE39FE10197F1F71C
S113033000C000000E94340180E00E943B01BC0127
S113034080E090E00E94C3032FEF39EF40E021509A
S113035030404040E1F700C0000020E030E040E4DD
S113036051E40E94510420E030E040E85AE30E9446
S1130370510422E030E0AE014F5F5F4F0E94D20093
S11303808FEF99EF20E0815090402040E1F700C0CA
S1130390000043E060E88EE30E94DE023FEF49EF95
S11303A080E0315040408040E1F700C0000060E050
S11303B071E08EE30E9405039FEF29EF30E0915036
S11303C020403040E1F700C00000BE016F5F7F4F66
S11303D08EE30E94050340EC60E88EE30E94DE0297
S11303E081E00E943B01BC0180E090E00E94C303D5
S11303F04FEF29EF30E0415020403040E1F700C09A
S1130400000020E030E040E451E40E94510420E088
S113041030E040E85AE30E94510422E030E0AE01AB
S11304204F5F5F4F0E94D2004FEF89EF90E0415041
S113043080409040E1F700C0000065E071E08EE389
S11304400E940503BE016F5F7F4F8EE30E94050388
S113045082E00E943B01BC0180E090E00E94C30363
S11304602FEF39EF40E0215030404040E1F700C029
S1130470000020E030E040E451E40E94510420E018
S113048030E040E85AE30E94510422E030E0AE013B
S11304904F5F5F4F0E94D2008FEF99EF20E08150B1
S11304A090402040E1F700C0000069E071E08EE375
S11304B00E940503BE016F5F7F4F8EE30E94050318
S11304C03FEF49EF80E0315040408040E1F700C009
S11304D0000032CF87B18F7C87B988B18F7C88B90F
S11304E01092B90088E48093B80084E08093BC0043
S11304F0089594EA9093BC009091BC009923E4F78A
S11305009091B9009873983011F0903191F48093E0
S1130510BB0084E88093BC008091BC008823E4F78E
S11305208091B900887F883131F0803431F480E0E3
S1130530089581E0089580E0089581E0089594EAA3
S11305409093BC009091BC009923E4F79091B9007A
S11305509873983011F0903191F78093BB0094E830
S11305609093BC009091BC009923E4F79091B9005A
S11305709873903241F494E99093BC009091BC003C
S113058094FDFCCFDCCF089584E98093BC00809176
S1130590BC0084FDFCCF08958093BB0084E8809365
S11305A0BC008091BC008823E4F78091B900887373
S11305B0883211F081E0089580E00895CF93DF93AD
S11305C0D62FC42F880F0E94790281111AC08AE69F
S11305D08A95F1F700C08D2F0E94CC028AE68A9595
S11305E0F1F700C08C2F0E94CC028AE68A95F1F7BD
S11305F000C00E94C40285ED8A95F1F7000080E0F6
S113060001C081E0DF91CF910895FF920F931F9372
S1130610CF93DF93F82E8B01C0E0D0E005C060E4F7
S11306208F2D0E94DE022196F801EC0FFD1F408100
S11306304111F5CFDF91CF911F910F91FF90089554
S11306405058BB27AA270E9438030C9417040E9411
S1130650090438F00E94100420F039F49F3F19F483
S113066026F40C9406040EF4E095E7FB0C940004C5
S1130670E92F0E94280458F3BA1762077307840706
S1130680950720F079F4A6F50C944A040EF4E0954D
S11306900B2EBA2FA02D0B01B90190010C01CA0138
S11306A0A0011124FF27591B99F0593F50F4503EE3
S11306B068F11A16F040A22F232F342F4427585FD5
S11306C0F3CF469537952795A795F0405395C9F7ED
S11306D07EF41F16BA0B620B730B840BBAF09150A5
S11306E0A1F0FF0FBB1F661F771F881FC2F70EC044
S11306F0BA0F621F731F841F48F487957795679517
S1130700B795F7959E3F08F0B0CF9395880F08F002
S11307109927EE0F9795879508950E9494036894FE
S1130720B1110C944B0408950E94300488F09F5733
S113073098F0B92F9927B751B0F0E1F0660F771F01
S1130740881F991F1AF0BA95C9F714C0B13091F0F7
S11307500E944A04B1E008950C944A04672F782F4C
S11307608827B85F39F0B93FCCF3869577956795BC
S1130770B395D9F73EF490958095709561957F4F28
S11307808F4F9F4F0895E89409C097FB3EF49095CE
S11307908095709561957F4F8F4F9F4F9923A9F056
S11307A0F92F96E9BB279395F695879577956795E5
S11307B0B795F111F8CFFAF4BB0F11F460FF1BC029
S11307C06F5F7F4F8F4F9F4F16C0882311F096E9BC
S11307D011C0772321F09EE8872F762F05C066236A
S11307E071F096E8862F70E060E02AF09A95660F23
S11307F0771F881FDAF7880F9695879597F90895DC
S113080097F99F6780E870E060E008959FEF80ECBF
S1130810089500240A941616170618060906089562
S113082000240A9412161306140605060895092EC8
S11308300394000C11F4882352F0BB0F40F4BF2B37
S113084011F460FF04C06F5F7F4F8F4F9F4F089577
S113085057FD9058440F551F59F05F3F71F047956D
S1130860880F97FB991F61F09F3F79F08795089552
S1130870121613061406551FF2CF4695F1DF08C071
S1130880161617061806991FF1CF8695710561058E
S113089008940895E894BB2766277727CB0197F936
S11308A008950E9464040C9417040E94090438F00B
S11308B00E94100420F0952311F00C9400040C9471
S11308C0060411240C944B040E94280470F3959F91
S11308D0C1F3950F50E0551F629FF001729FBB2733
S11308E0F00DB11D639FAA27F00DB11DAA1F649FCF
S11308F06627B00DA11D661F829F2227B00DA11D82
S1130900621F739FB00DA11D621F839FA00D611D07
S1130910221F749F3327A00D611D231F849F600D28
S1130920211D822F762F6A2F11249F5750409AF051
S1130930F1F088234AF0EE0FFF1FBB1F661F771FDD
S1130940881F91505040A9F79E3F510580F00C94A8
S113095000040C944B045F3FE4F3983ED4F3869573
S113096077956795B795F795E7959F5FC1F7FE2B48
S1130970880F911D9695879597F90895FA01EE0FC2
S1130980FF1F309621053105A1F16115710561F450
S11309908038BFE39B0749F168949038810561F082
S11309A08038BFEF9B0741F099234AF5FF3FE105EB
S11309B03105210519F1E8940894E795D901AA2392
S11309C029F4AB2FBE2FF85FD0F310C0FF5F70F493
S11309D0A695E0F7F73950F019F0FF3A38F49F770D
S11309E09F930DD00F9007FC9058089546F00C94F7
S11309F0060460E070E080E89FE308954FE79F7786
S1130A005F934F933F932F930E94B9052F913F918A
S1130A104F915F910E9451040C94160529F416F02D
S1130A200C9400040C944A040C9406040E943004B0
S1130A30A8F39638A0F707F80F92E8942BE33AEA64
S1130A4048EB5FE70E9467040F920F920F924DB735
S1130A505EB70F920E940106E8E6F0E00E944805A6
S1130A604F915F91EF91FF91E595EE1FFF1F49F0C4
S1130A70FE57E0684427EE0F441FFA95E1F74195CD
S1130A80550B0E947B050F9007FE0C946F0508958B
S1130A90DF93CF931F930F93FF92EF92DF927B012B
S1130AA08C01689406C0DA2EEF010E946404FE01F2
S1130AB0E894A5912591359145915591A6F3EF01BF
S1130AC00E943803FE019701A801DA9469F7DF90C8
S1130AD0EF90FF900F911F91CF91DF9108959B01AB
S1130AE0AC0160E070E080E89FE30C9435060C9460
S1130AF000040C94A7060E943004D8F39923C9F388
S1130B00940F511DA3F39150504094F059F0882351
S1130B1032F0660F771F881F91505040C1F79E3FF7
S1130B2051052CF7880F911D9695879597F908958F
S1130B305F3FACF0983E9CF0BB2786957795679510
S1130B40B79508F4B1609395C1F7BB0F58F711F44A
S1130B5060FFE8CF6F5F7F4F8F4F9F4FE3CF0C94C1
S1130B604B0416F00C94A7060C94060468940C9499
S1130B7000040E943004A8F39923C1F3AEF3DF9379
S1130B80CF931F930F93FF92C92FDD2788232AF059
S1130B902197660F771F881FDAF720E030E040E8DE
S1130BA05FEB9FE3883920F0803E38F021968F7701
S1130BB00E942103E0E9F0E004C00E942103EDEB70
S1130BC0F0E00E9448058B01BE01EC01FB2E6F573B
S1130BD071097595771F880B990B0E94C50328E14D
S1130BE032E741E35FE30E946404AF2D9801AE0154
S1130BF0FF900F911F91CF91DF910E9438030C94C5
S1130C001704FA01DC01AA0FBB1F9B01AC01BF57FB
S1130C1028F4222733274427507820C0B75190F472
S1130C20AB2F0024469537952795011CA395D2F345
S1130C30002071F0220F331F441FB395DAF30ED056
S1130C400C94200361307105A0E88A07B94630F49A
S1130C509B01AC016627772788279078309621F08E
S1130C60208331834283538308950E9449060C9460
S1130C7017040E94100458F00E94090440F029F45B
S1130C805F3F29F00C94000451110C944B040C9414
S1130C9006040E94280468F39923B1F3552391F3C1
S1130CA0951B550BBB27AA2762177307840738F0D7
S1130CB09F5F5F4F220F331F441FAA1FA9F335D034
S1130CC00E2E3AF0E0E832D091505040E695001CE8
S1130CD0CAF72BD0FE2F29D0660F771F881FBB1FA2
S1130CE0261737074807AB07B0E809F0BB0B802D80
S1130CF0BF01FF2793585F4F3AF09E3F510578F0AC
S1130D000C9400040C944B045F3FE4F3983ED4F33A
S1130D10869577956795B795F7959F5FC9F7880F7F
S1130D20911D9695879597F90895E1E0660F771FD1
S1130D30881FBB1F621773078407BA0720F0621B62
S1130D40730B840BBA0BEE1F88F7E09508959F3F51
S1130D5031F0915020F4879577956795B795880F72
S1130D60911D9695879597F9089597FB072E16F48C
S1130D70009407D077FD09D00E94C90607FC05D06E
S1130D803EF4909581959F4F0895709561957F4F9E
S1130D900895AA1BBB1B51E107C0AA1FBB1FA617BE
S1130DA0B70710F0A61BB70B881F991F5A95A9F710
S1110DB080959095BC01CD010895F894FFCF75
S1110DBE51313A2D00513A2D0020563A0000D2
S9030000FC
