S0110000693263466C657572792E737265639E
S11300000C9434000C9449000C9449000C9449005D
S11300100C9449000C9449000C9449000C94490038
S11300200C9449000C9449000C9449000C94490028
S11300300C9449000C9449000C9449000C94490018
S11300400C9449000C9449000C9449000C94490008
S11300500C9449000C9449000C9449000C944900F8
S11300600C9449000C94490011241FBECFEFD8E032
S1130070DEBFCDBF11E0A0E0B1E0E0ECF2E002C0F1
S113008005900D92AC30B107D9F70E944B000C9447
S11300905E010C9400002FEF86E791E02150804030
S11300A09040E1F700C000000E94A8008FE39FE1A8
S11300B00197F1F700C000008CE70E94DD009AE68A
S11300C09A95F1F700C080E80E940A012AE62A9571
S11300D0F1F700C088E20E940A010E9402018FE346
S11300E09FE10197F1F700C000004CE060E88EE367
S11300F00E941C0141E060E88EE30E941C0146E07E
S113010060E88EE30E941C018FE39FE10197F1F701
S113011000C0000060E071E08EE30E94430140EC07
S113012060E88EE30E941C0166E071E08EE30E94A9
S1130130430144E160E88EE30E941C019FEF23ED3C
S113014080E3915020408040E1F700C00000F1CFEF
S113015087B18F7C87B988B18F7C88B91092B90038
S113016088E48093B80084E08093BC00089594EA06
S11301709093BC009091BC009923E4F79091B9004E
S11301809873983011F0903191F48093BB0084E817
S11301908093BC008091BC008823E4F78091B9006F
S11301A0887F883131F0803431F480E0089581E033
S11301B0089580E0089581E0089594EA9093BC0046
S11301C09091BC009923E4F79091B900987398300A
S11301D011F0903191F78093BB0094E89093BC00A8
S11301E09091BC009923E4F79091B90098739032F0
S11301F041F494E99093BC009091BC0094FDFCCF31
S1130200DCCF089584E98093BC008091BC0084FD18
S1130210FCCF08958093BB0084E88093BC00809158
S1130220BC008823E4F78091B9008873883211F008
S113023081E0089580E00895CF93DF93D62FC42FF3
S1130240880F0E94B70081111AC08AE68A95F1F7D7
S113025000C08D2F0E940A018AE68A95F1F700C03A
S11302608C2F0E940A018AE68A95F1F700C00E9449
S1130270020185ED8A95F1F7000080E001C081E07C
S1130280DF91CF910895FF920F931F93CF93DF9344
S1130290F82E8B01C0E0D0E005C060E48F2D0E94F1
S11302A01C012196F801EC0FFD1F40814111F5CF8F
S11302B0DF91CF911F910F91FF900895F894FFCF94
S10F02C048454C4C4F00576F726C6400B2
S9030000FC
